:020000040800F2
:1000000000180020B1660008595C0008635C000815
:1000100000000000000000000000000000000000E0
:10002000000000000000000000000000695C000803
:100030000000000000000000735C00087D5C000808
:1000400031670008000000003167000831670008D0
:100050003167000831670008316700083167000820
:1000600000000000316700083167000831670008B0
:1000700031670008316700083167000800000000A0
:100080003167000800000000000000003167000830
:100090000000000031670008316700083167000880
:1000A0000000000031670008000000003167000810
:1000B0003167000800000000000000008D5C0008AF
:1000C00010B5064C2378002B07D1054B002B02D02E
:1000D000044800E000BF0123237010BD7C01002014
:1000E000000000008C670008044B10B5002B03D003
:1000F0000349044800E000BF10BDC04600000000F6
:10010000800100208C670008002243088B4274D3D2
:1001100003098B425FD3030A8B4244D3030B8B4208
:1001200028D3030C8B420DD3FF22090212BA030C11
:100130008B4202D31212090265D0030B8B4219D3F2
:1001400000E0090AC30B8B4201D3CB03C01A524112
:10015000830B8B4201D38B03C01A5241430B8B425A
:1001600001D34B03C01A5241030B8B4201D30B0343
:10017000C01A5241C30A8B4201D3CB02C01A52416A
:10018000830A8B4201D38B02C01A5241430A8B422D
:1001900001D34B02C01A5241030A8B4201D30B0216
:1001A000C01A5241CDD2C3098B4201D3CB01C01A30
:1001B000524183098B4201D38B01C01A524143093A
:1001C0008B4201D34B01C01A524103098B4201D328
:1001D0000B01C01A5241C3088B4201D3CB00C01A95
:1001E000524183088B4201D38B00C01A524143080D
:1001F0008B4201D34B00C01A5241411A00D2014632
:10020000524110467047FFE701B5002000F006F8A4
:1002100002BDC0460029F7D076E770477047C04658
:1002200080B500AF074B1A68064B10210A431A60CD
:10023000002000F009F805F097FC00231800BD46E7
:1002400080BDC0460020024090B583B000AF78600A
:10025000144B1C68144B1B781900FA239800FFF705
:1002600053FF030019002000FFF74EFF03001800A2
:1002700000F02DF9031E01D001230FE07B68032B52
:100280000BD8796801235B420022180000F0FAF8CD
:10029000064B7A681A60002300E001231800BD466F
:1002A00003B090BD180100200400002000000020D1
:1002B00080B500AF054B1B781A00054B1B68D218A0
:1002C000034B1A60C046BD4680BDC04604000020F6
:1002D0009801002080B500AF024B1B681800BD4696
:1002E00080BDC0469801002080B584B000AF786022
:1002F000FFF7F0FF0300BB607B68FB60FB68013326
:1003000005D0094B1B781A00FB689B18FB60C046A0
:10031000FFF7E0FF0200BB68D31AFA689A42F7D8E9
:10032000C046BD4604B080BD0400002080B582B048
:1003300000AF0200FB1D1A70FB1D1B787F2B09D834
:10034000FB1D1B781A001F231A40044B012191400A
:100350000A001A60C046BD4602B080BD00E100E060
:1003600090B583B000AF02003960FB1D1A70FB1D11
:100370001B787F2B28D82F4AFB1D1B785BB29B086C
:10038000C0339B009B58FA1D1278110003220A40CB
:10039000D200FF2191400A00D2431A4011003B686D
:1003A0009B01FF221A40FB1D1B781800032303400A
:1003B000DB009A401F48FB1D1B785BB29B080A4379
:1003C000C0339B001A5031E01B4AFB1D1B781900FB
:1003D0000F230B40083B9B0806339B00D3180433C4
:1003E0001B68FA1D1278110003220A40D200FF2177
:1003F00091400A00D2431A4011003B689B01FF2242
:100400001A40FB1D1B78180003230340DB009A40B1
:100410000948FB1D1B781C000F232340083B9B0849
:100420000A4306339B00C31804331A60C046BD4616
:1004300003B090BD00E100E000ED00E080B582B0C7
:1004400000AF78607B68013B0C4A934201D90123DD
:1004500010E00B4B7A68013A5A6001235B4203219A
:100460001800FFF77DFF064B00229A60044B07221D
:100470001A6000231800BD4602B080BDFFFFFF00D8
:1004800010E000E080B584B000AFB9607A600F2161
:100490007B18021C1A70BA687B181B785BB21100BB
:1004A0001800FFF75DFFC046BD4604B080BD80B5B3
:1004B00082B000AF0200FB1D1A70FB1D1B785BB2FF
:1004C0001800FFF733FFC046BD4602B080BD80B5BF
:1004D00082B000AF78607B681800FFF7AFFF0300C1
:1004E0001800BD4602B080BD80B586B000AF786010
:1004F000396000237B614FE13B681B6801217A6909
:1005000091400A001340FB60FB68002B00D140E1E2
:100510003B685B68022B03D03B685B68122B23D1DE
:100520007B69DA087B6808329200D3583B617B69AB
:10053000072213409B000F229A401300DA433B69C5
:1005400013403B613B681A697B6907210B409B00A4
:100550009A4013003A6913433B617B69DA087B6870
:10056000083292003969D1507B681B683B617B6916
:100570005B0003229A401300DA433B6913403B615E
:100580003B685B6803221A407B695B009A4013005A
:100590003A6913433B617B683A691A603B685B6860
:1005A000012B0BD03B685B68022B07D03B685B6874
:1005B000112B03D03B685B68122B30D17B689B68A2
:1005C0003B617B695B0003229A401300DA433B697D
:1005D00013403B613B68DA687B695B009A4013001B
:1005E0003A6913433B617B683A699A607B685B6850
:1005F0003B6101227B699A401300DA433B69134057
:100600003B613B685B681B0901221A407B699A4089
:1006100013003A6913433B617B683A695A607B680F
:10062000DB683B617B695B0003229A401300DA437D
:100630003B6913403B613B689A687B695B009A4069
:1006400013003A6913433B617B683A69DA603B689F
:100650005A6880235B05134000D19AE0544B9A6995
:10066000534B01210A439A61514B9B69012213406C
:10067000BB60BB684F4A7B699B0802339B009B5859
:100680003B617B69032213409B000F229A401300B9
:10069000DA433B6913403B617A689023DB059A4259
:1006A00013D07B68444A93420DD07B68434A9342FF
:1006B00007D07B68424A934201D1032306E0052319
:1006C00004E0022302E0012300E000237A69032111
:1006D0000A40920093403A6913433B6135497B6974
:1006E0009B0802339B003A695A50364B1B683B61AA
:1006F000FB68DA433B6913403B613B685A688023DF
:100700005B02134003D03A69FB6813433B612D4BF6
:100710003A691A602B4B5B683B61FB68DA433B69C3
:1007200013403B613B685A6880239B02134003D00F
:100730003A69FB6813433B61224B3A695A60214B8B
:100740009B683B61FB68DA433B6913403B613B6854
:100750005A6880235B03134003D03A69FB68134354
:100760003B61184B3A699A60164BDB683B61FB684A
:10077000DA433B6913403B613B685A6880239B0323
:10078000134003D03A69FB6813433B610D4B3A6950
:10079000DA607B6901337B613B681A687B69DA4008
:1007A000131E00D0A8E6C046BD4606B080BDC046B8
:1007B000001002400000014000040048000800480A
:1007C000000C00480004014080B582B000AF7860A2
:1007D00008001100BB1C021C1A807B1C0A1C1A702A
:1007E0007B1C1B78002B04D0BB1C1A887B689A6189
:1007F00003E0BB1C1A887B689A62C046BD4602B003
:1008000080BD80B582B000AF78600A00BB1C1A8042
:100810007B685B69BA1C1288134005D0BB1C1B881F
:100820001A047B689A6103E0BB1C1A887B689A6192
:10083000C046BD4602B080BDF0B58BB006AF786053
:100840007B68002B01D10123D3E07B686B4A9B5C62
:10085000DBB2002B08D17A688A239B000021D15497
:100860007B68180005F0A8FA7B68644A0321995454
:100870007B681B68180002F041F90F23FB18002267
:100880001A7043E00F203B181B787A6829215B011E
:10089000D3185B1801221A703B181B787A6828213C
:1008A0005B01D3185B183A1812781A703B181B7842
:1008B0003A18127891B27A685B01D31836330A1C61
:1008C0001A803B181B787A682B215B01D3185B18C0
:1008D00000221A703B181B787A685B01D3183833F2
:1008E00000221A603B181B787A685B01D3183C33EE
:1008F00000221A603B181A787B68023252010021EC
:10090000D1503B181A783B1801321A700F217B180E
:100910001A787B685B689A42B4D37B1800221A70FD
:100920003FE00F203B181A7879682A23FF335201E1
:100930008A18D31800221A703B181A787968942301
:100940005B0052018A18D3183A1812781A703B18B3
:100950001A7879682C23FF3352018A18D3180022A1
:100960001A703B181A7879689C235B0052018A1828
:10097000D31800221A603B181A7879689E235B000E
:1009800052018A18D31800221A603B181A787B6823
:100990000A3252010021D1503B181A783B1801321B
:1009A0001A700F23FB181A787B685B689A42B8D3D9
:1009B0007B6818687B686A4611001A00103270CA9A
:1009C00070C130CA30C159689A68DB6802F0B6F865
:1009D0007B682422002199547B68084A012199549C
:1009E0007B68DB69012B03D17B68180000F008FFEE
:1009F00000231800BD4605B0F0BDC0462902000026
:100A000080B582B000AF78607A688A239B00D35C9F
:100A1000012B01D1022314E07A688A239B00012173
:100A2000D1547B681B68180003F0E0F87B681B68F2
:100A3000180002F049F87A688A239B000021D154FB
:100A400000231800BD4602B080BD000080B582B012
:100A500000AF78607B681B68180003F0DDF80200C7
:100A600080231B021A4080231B029A4203D17B6819
:100A7000180000F0AFFB7B681B68180003F0CCF88F
:100A800002008023DB001A408023DB009A4214D14D
:100A90007B681B6844229B5A9AB27B681B68A849F2
:100AA0000A4091B2442299527B68180005F008FA76
:100AB0007B680021180000F051F97B681B68180062
:100AC00003F0AAF802008023DB011A408023DB0137
:100AD0009A420BD17B681B6844229B5A9AB27B686E
:100AE0001B6898490A4091B2442299527B681B685E
:100AF000180003F091F8020080239B011A40802324
:100B00009B019A420BD17B681B6844229B5A9AB284
:100B10007B681B688C490A4091B2442299527B68D9
:100B20001B68180003F078F8020080235B011A406C
:100B300080235B019A4237D17B681B6840229B5A15
:100B40009AB27B681B6804218A4391B24022995271
:100B50007B681B6840229B5A9AB27B681B680821FD
:100B60008A4391B2402299527A6898239B00D35CC1
:100B7000012B09D17A6898239B000021D1547B680E
:100B80000021180000F066FE7B68180005F0D8F917
:100B90007B681B6844229B5A9AB27B681B686B492E
:100BA0000A4091B2442299527B681B68180003F0F6
:100BB00033F8020080231B011A4080231B019A4254
:100BC00034D17B681B6840229B5A9AB27B681B68B1
:100BD00008210A4391B2402299527B681B68442243
:100BE0009B5A9AB27B681B6859490A4091B24422C9
:100BF00099527B681B6840229B5A9AB27B681B689B
:100C000004210A4391B2402299527B681B68180064
:100C100003F002F8020080235B011A4080235B018D
:100C20009A4203D07B68180005F06EF97B681B6858
:100C3000180002F0F1FF020080231340802B45D101
:100C40007B681B6844229B5A9AB27B681B68802190
:100C50008A4391B2442299527A6898239B00D35CCC
:100C6000002B2FD17B681B6840229B5A9AB27B686D
:100C70001B6804210A4391B2402299527B681B6889
:100C800040229B5A9AB27B681B6808210A4391B2A2
:100C9000402299527A6898239B000121D1547B68A5
:100CA0001B6854229B5A9BB29B083C22134019009C
:100CB0007A6899239B00D1507B680121180000F0CD
:100CC000C9FD03E07B68180005F01EF97B681B680E
:100CD000180002F0A1FF020080239B001A4080232D
:100CE0009B009A420FD17B681B6844229B5A9AB2A0
:100CF0007B681B6817490A4091B2442299527B686D
:100D0000180005F0CEF87B681B68180002F084FF1D
:100D1000020080235B001A4080235B009A420BD1C3
:100D20007B681B6844229B5A9AB27B681B680A49FD
:100D30000A4091B244229952C046BD4602B080BDDD
:100D4000FFFBFFFFFFBFFFFFFFDFFFFFFFEFFFFF27
:100D5000FFF7FFFFFFFDFFFFFFFEFFFF80B582B043
:100D600000AF78600A00FB1C1A707A688A239B0027
:100D7000D35C012B01D1022317E07A688A239B0000
:100D80000121D1547B68FA1C242112785A547B68C3
:100D90001A68FB1C1B781900100002F013FF7A6818
:100DA0008A239B000021D15400231800BD4602B0C5
:100DB00080BD90B585B000AF78600C0010001900C0
:100DC000FB1C221C1A703B00021C1A80BB1C0A1C54
:100DD0001A700B23FB1800221A70FB1C1B785BB2E5
:100DE000002B0CDAFB1C1B78072213405B01283315
:100DF0007A68D318FB60FB6801225A700CE0FB1C78
:100E00001B78072213405B012933FF337A68D3181C
:100E1000FB60FB6800225A70FB1C1B780722134002
:100E2000DAB2FB681A703B001A88FB681A61FB682B
:100E3000BA1C1278DA70FB685B78002B04D0FB6870
:100E40001B789AB2FB68DA81BB1C1B78022B02D19B
:100E5000FB6800221A717A688A239B00D35C012BFD
:100E600001D1022313E07A688A239B000121D15427
:100E70007B681B68FA681100180001F08FFE7A6821
:100E80008A239B000021D1540B23FB181B781800E8
:100E9000BD4605B090BD80B584B000AF78600A0053
:100EA000FB1C1A70FB1C1B785BB2002B0CDAFB1CC2
:100EB0001B78072213405B0128337A68D318FB6044
:100EC000FB6801225A700CE0FB1C1B7807221340C0
:100ED0005B012933FF337A68D318FB60FB6800227B
:100EE0005A70FB1C1B7807221340DAB2FB681A7099
:100EF0007A688A239B00D35C012B01D1022311E085
:100F00007A688A239B000121D1547B681B68FA68A8
:100F10001100180002F03AF97A688A239B00002138
:100F2000D15400231800BD4604B080BD80B586B002
:100F300000AFF8607A603B600B203B180A1C1A7007
:100F400001007B181B78072213405B012933FF3314
:100F5000FA68D3187B617B697A685A617B693A6861
:100F60009A617B690022DA617B6900225A707B18E2
:100F70001B7807221340DAB27B691A707B181B7842
:100F80000722134007D1FB681B687A69110018001B
:100F900002F072FA06E0FB681B687A69110018001B
:100FA00002F06AFA00231800BD4606B080BD80B585
:100FB00082B000AF78600A00FB1C1A70FB1C1B7823
:100FC000072213407A680A335B01D31804331B6885
:100FD0001800BD4602B080BD80B586B000AFF86095
:100FE0007A603B600B203B180A1C1A7001007B18CA
:100FF0001B78072213405B012833FA68D3187B6102
:101000007B697A685A617B693A689A617B690022D8
:10101000DA617B6901225A707B181B780722134022
:10102000DAB27B691A707B181B780722134007D14C
:10103000FB681B687A691100180002F01DFA06E0CF
:10104000FB681B687A691100180002F015FA00238A
:101050001800BD4606B080BD80B584B000AF786092
:101060000A00FB1C1A70FB1C1B7807221A407B68C5
:101070005B689A4201D9012350E0FB1C1B785BB2EC
:10108000002B0CDAFB1C1B78072213405B01283372
:101090007A68D318FB60FB6801225A700AE0FB1CD7
:1010A0001B785B012933FF337A68D318FB60FB6838
:1010B00000225A70FB6801229A70FB1C1B780722E1
:1010C0001340DAB2FB681A707A688A239B00D35CFB
:1010D000012B01D1022321E07A688A239B000121A0
:1010E000D1547B681B68FA681100180002F096FC66
:1010F000FB1C1B78072213400AD17B681A687B68A7
:101100008C2189008C4663441900100002F092FD86
:101110007A688A239B000021D15400231800BD4621
:1011200004B080BD80B584B000AF78600A00FB1CBD
:101130001A70FB1C1B780F221A407B685B689A426E
:1011400001D9012342E0FB1C1B785BB2002B0CDAB7
:10115000FB1C1B78072213405B0128337A68D318E5
:10116000FB60FB6801225A700CE0FB1C1B78072215
:1011700013405B012933FF337A68D318FB60FB68A7
:1011800000225A70FB6800229A70FB1C1B78072211
:101190001340DAB2FB681A707A688A239B00D35C2A
:1011A000012B01D1022311E07A688A239B000121DF
:1011B000D1547B681B68FA681100180002F070FCBB
:1011C0007A688A239B000021D15400231800BD4671
:1011D00004B080BD90B589B000AF7860AEE27B68A6
:1011E0001A6816203B184421525A1A803B181B8853
:1011F000DAB215243B190F210A401A703B191B78EB
:10120000002B00D040E13B181B88102213404ED128
:101210007B681B681B889BB2C94A13409CB27B68E1
:101220001B68C84A224392B21A807B6828333B610C
:101230007B681B6850229B5A9BB21A003B691B7843
:10124000DB00D2187B681B68D318BF4A94466344FE
:101250001B889B059A0D3B69DA613B695A693B69BA
:10126000DB69D2183B695A617B680021180004F0E1
:10127000FDFD7B6824229B5CDBB2002B00D15DE28C
:101280003B699B69002B00D058E27B6824229B5C61
:10129000DBB2802252421343DAB27B681B6891B200
:1012A0004C2299527B6824220021995446E27B68A3
:1012B0002933FF333B617B681A680E217B18128843
:1012C0001A807B181A8880231B01134033D07B6857
:1012D0001B6850229B5A9BB21A003B691B78DB00AB
:1012E000D2187B681B68D318984A944663441B88BD
:1012F0009B059A0D3B69DA617B6818687B688C22D4
:10130000920099183B69DA883B69DB699BB202F06D
:10131000DEFC7B681B681B889BB28D4A13409CB225
:101320007B681B688022224392B21A807B68180077
:1013300004F06AFD02E20E23FB1800229B5E002BE4
:1013400000DBFBE17B681B681B889BB2804A134073
:101350009CB27B681B688022224392B21A807B6811
:101360001B6850229B5A9BB21A003B691B78DB001A
:10137000D2187B681B68D318744A944663441B8850
:101380009B059A0D3B69DA613B69DB69002B1AD03A
:101390003B695B69002B16D07B6818683B6959690B
:1013A0003B69DA883B69DB699BB202F090FC3B69E0
:1013B0005A693B69DB69D2183B695A617B68002135
:1013C000180004F036FD7B681B681C007B681B68F6
:1013D00050229B5A9BB2E4185C4BE318BB603B69FC
:1013E0001B69002B0ED1BB681B885A4A13409AB266
:1013F000BB681A80BB681B88524A13439AB2BB6809
:101400001A802BE03B691B693E2B12D83B691B6994
:101410005B08BB613B691B690122134002D0BB69B9
:101420000133BB61BB699BB29B029AB2BB681A8055
:1014300014E03B691B695B09BB613B691B691F22A7
:10144000134002D1BB69013BBB61BB699BB29B02EC
:101450009BB23C4A13439AB2BB681A807B681B68F4
:101460001B889BB23C4A13409CB280235B016340C3
:101470009CB280239B0163409CB27B681B68374A07
:10148000224392B21A8059E17B681B681A00152129
:101490007B181B789B00D2180E203B1812881A80EC
:1014A0003B1800229B5E002B00DBF1E07B681B6891
:1014B0001A007B181B789B00D3181B889BB2244A08
:1014C00013409CB27B681B681A007B181B789B003A
:1014D000D3188022224392B21A807B181B785B01BA
:1014E0002933FF337A68D3183B613B691B7B002BA0
:1014F00036D17B681B6850229B5A9BB21A003B690D
:101500001B78DB00D2187B681B68D3180F4A9446FF
:1015100063441A881E243B199205920D1A803B19C8
:101520001B88002B00D189E07B6818683B695969EA
:101530003B69DA883B191B8802F0C9FB7EE0C04694
:101540000F8FFFFF0080FFFF020400000604000071
:101550008F0F0000FF83FFFF8FBFFFFF8080FFFF23
:101560007B681B681A003B691B789B00D3181B889B
:101570009BB21A008023DB01134024D07B681B68D8
:1015800050229B5A9BB21A003B691B78DB00D21891
:101590007B681B68D318704A944663441A881E24DB
:1015A0003B199205920D1A803B191B88002B2ED0F7
:1015B0007B6818683B6959693B691A893B191B8824
:1015C00002F085FB23E07B681B6850229B5A9BB28C
:1015D0001A003B691B78DB00D2187B681B68D318A4
:1015E0005E4A944663441A881E243B199205920D64
:1015F0001A803B191B88002B09D07B6818683B694F
:1016000059693B695A893B191B8802F060FB7B686A
:101610001B681A003B691B789B00D3181B889BB280
:101620004F4A13409CB27B681B681A003B691B78C9
:101630009B00D3184B4A224392B21A803B69DA6965
:101640001E217B181B88D2183B69DA613B695A69F5
:101650007B181B88D2183B695A613B699B69002B38
:1016600005D07B181A883B691B699A4207D23B69EF
:101670001A787B681100180004F0DBFB08E03B6976
:1016800019783B695A693B699B697868FFF74EFC9A
:101690000E23FB181B88802213404FD015217B1886
:1016A0001B785B0128337A68D3183B617B681B6821
:1016B0001A007B181B789B00D3181B889BB22A4A00
:1016C00013409CB27B681B681A007B181B789B0038
:1016D000D318264A224392B21A807B681B68502294
:1016E0009B5A9BB21A003B691B78DB00D2187B68BF
:1016F0001B68D318184A944663441B889B059A0DAF
:101700003B69DA613B695A693B69DB69D2183B691D
:101710005A613B699B69002B07D13B691A787B684A
:101720001100180004F0A2FB08E03B6919783B693E
:101730005A693B699B697868FFF74EFC7B681B68B8
:1017400044229B5A9BB21BB2002B00DA47E50023D0
:101750001800BD4609B090BD020400000604000058
:101760008F8FFFFFC080FFFF0F8FFFFF0080FFFF05
:1017700090B587B000AFF860080011007B600A24C4
:101780003B19021C1A800823FB180A1C1A8021002E
:101790007B181B88802213409BB2002B09D07B183A
:1017A0001B88072213405B012833FA68D3187B613A
:1017B00008E00A23FB181B885B012933FF33FA6812
:1017C000D3187B610823FB181B88002B07D17B698A
:1017D00000221A737B689AB27B69DA800BE07B691E
:1017E00001221A737B689AB27B691A817B681B0C91
:1017F0009AB27B695A8100231800BD4607B090BD9C
:1018000080B584B000AF78607B681B68FB607A6845
:101810009A239B000121D1507A6898239B000021D4
:10182000D154FB6854229B5A9BB20122134399B2B4
:10183000FB6854229952FB6854229B5A9BB20222A5
:10184000134399B2FB685422995200231800BD46F5
:1018500004B080BD80B582B000AF78600A00FB1C88
:101860001A70C046BD4602B080BD000080B588B089
:1018700000AF78607B68002B01D1012305E37B6812
:101880001B680122134000D18DE0C54B5B680C2220
:101890001340042B0ED0C24B5B680C221340082B64
:1018A00016D1BF4B5A68C0235B021A4080235B02EB
:1018B0009A420DD1BA4B1A6880239B02134000D183
:1018C00070E07B685B68002B00D06BE00123DCE2FA
:1018D0007B685B68012B07D1B14B1A68B04B802144
:1018E00049020A431A602FE07B685B68002B0CD129
:1018F000AB4B1A68AA4BAB490A401A60A84B1A684E
:10190000A74BA9490A401A601EE07B685B68052B5B
:101910000ED1A34B1A68A24B8021C9020A431A6058
:101920009F4B1A689E4B802149020A431A600BE0C4
:101930009B4B1A689A4B9B490A401A60984B1A684D
:10194000974B99490A401A607B685B68002B14D05A
:10195000FEF7C0FC0300BB6108E0FEF7BBFC020021
:10196000BB69D31A642B01D903238EE28C4B1A680E
:1019700080239B021340F0D015E0FEF7ABFC030080
:10198000BB6108E0FEF7A6FC0200BB69D31A642B1A
:1019900001D9032379E2824B1A6880239B0213400A
:1019A000F0D100E0C0467B681B680222134000D1E2
:1019B0006CE07B4B5B680C2213400ED0784B5B686D
:1019C0000C221340082B1FD1754B5A68C0235B02B1
:1019D0001A4080231B029A4216D1714B1B680222C7
:1019E000134005D07B68DB68012B01D001234CE25A
:1019F0006B4B1B68F822934319007B681B69DA0064
:101A0000674B0A431A6041E07B68DB68002B24D0F7
:101A1000634B1A68624B01210A431A60FEF75AFCB5
:101A20000300BB6108E0FEF755FC0200BB69D31A56
:101A3000022B01D9032328E2594B1B6802221340D1
:101A4000F1D0574B1B68F822934319007B681B6940
:101A5000DA00534B0A431A6018E0514B1A68504B96
:101A600001218A431A60FEF735FC0300BB6108E0E0
:101A7000FEF730FC0200BB69D31A022B01D9032305
:101A800003E2474B1B6802221340F1D17B681B68BD
:101A90000822134036D07B68DB69002B19D0404BFD
:101AA0005A6A3F4B01210A435A62FEF713FC0300B6
:101AB000BB6108E0FEF70EFC0200BB69D31A022BE3
:101AC00001D90323E1E1364B5B6A02221340F1D0D6
:101AD00018E0334B5A6A324B01218A435A62FEF7AF
:101AE000F9FB0300BB6108E0FEF7F4FB0200BB69F1
:101AF000D31A022B01D90323C7E1294B5B6A0222C7
:101B00001340F1D17B681B680422134000D1B5E07B
:101B10001F203B1800221A70214BDA6980235B05D5
:101B2000134010D11E4BDA691D4B802149050A4331
:101B3000DA611B4BDA6980235B051340FB60FB68AD
:101B40003B1801221A70194B1A6880235B0013405E
:101B50001AD1164B1A68154B802149000A431A60A6
:101B6000FEF7B8FB0300BB6108E0FEF7B3FB020021
:101B7000BB69D31A642B01D9032386E10B4B1A6886
:101B800080235B001340F0D07B689B68012B0FD152
:101B9000034B1A6A024B01210A431A6236E0C0461F
:101BA00000100240FFFFFEFFFFFFFBFF0070004040
:101BB0007B689B68002B0CD1B64B1A6AB54B012190
:101BC0008A431A62B34B1A6AB24B04218A431A62DF
:101BD0001CE07B689B68052B0CD1AE4B1A6AAD4BA1
:101BE00004210A431A62AB4B1A6AAA4B01210A4329
:101BF0001A620BE0A74B1A6AA64B01218A431A62AC
:101C0000A44B1A6AA34B04218A431A627B689B681F
:101C1000002B14D0FEF75EFB0300BB6109E0FEF76A
:101C200059FB0200BB69D31A9B4A934201D9032393
:101C30002BE1984B1B6A02221340F0D013E0FEF711
:101C400049FB0300BB6109E0FEF744FB0200BB69EE
:101C5000D31A914A934201D9032316E18D4B1B6A93
:101C600002221340F0D11F23FB181B78012B05D152
:101C7000884BDA69874B89490A40DA617B681B68BF
:101C80001022134063D07B685B69012B2AD1814B02
:101C90005A6B804B04210A435A637E4B5A6B7D4B2F
:101CA00001210A435A63FEF715FB0300BB6108E0FC
:101CB000FEF710FB0200BB69D31A022B01D90323E4
:101CC000E3E0744B5B6B02221340F1D0714B5B6B12
:101CD000F822934319007B689B69DA006D4B0A4335
:101CE0005A6334E07B685B69053311D1694B5A6BE9
:101CF000684B04218A435A63664B5B6BF82293431B
:101D000019007B689B69DA00624B0A435A631EE044
:101D1000604B5A6B5F4B04210A435A635D4B5A6B0D
:101D20005C4B01218A435A63FEF7D4FA0300BB617E
:101D300008E0FEF7CFFA0200BB69D31A022B01D9E3
:101D40000323A2E0534B5B6B02221340F1D17B686B
:101D50001B6A002B00D197E04E4B5B680C221340AE
:101D6000082B00D16BE07B681B6A022B4CD1494BDE
:101D70001A68484B4A490A401A60FEF7ABFA03005A
:101D8000BB6108E0FEF7A6FA0200BB69D31A022B7A
:101D900001D9032379E03F4B1A6880239B04134049
:101DA000F0D13C4BDB6A0F22934319007B68DA6A5F
:101DB000384B0A43DA62374B5B683A4A13401900E2
:101DC0007B689A6A7B685B6A1A43324B0A435A60A3
:101DD000304B1A682F4B802149040A431A60FEF7E2
:101DE00079FA0300BB6108E0FEF774FA0200BB69F0
:101DF000D31A022B01D9032347E0264B1A6880230C
:101E00009B041340F0D03FE0224B1A68214B244939
:101E10000A401A60FEF75EFA0300BB6108E0FEF7B5
:101E200059FA0200BB69D31A022B01D903232CE013
:101E3000184B1A6880239B041340F0D124E07B6880
:101E40001B6A012B01D101231FE0124B5B687B61F0
:101E5000104BDB6A3B617A69C0235B021A407B68E6
:101E60005B6A9A420ED13B690F221A407B68DB6A9B
:101E70009A4207D17A69F0239B031A407B689B6AD8
:101E80009A4201D0012300E000231800BD4608B0AB
:101E900080BDC0460010024088130000FFFFFFEF26
:101EA000FFFFFFFEFF7FC2FF80B584B000AF786008
:101EB00039607B68002B01D10123B3E05B4B1B68C9
:101EC000012213403A689A4211D9584B1B680122EB
:101ED00093431900554B3A680A431A60534B1B68E9
:101EE000012213403A689A4201D001239AE07B68AC
:101EF0001B680222134015D07B681B680422134024
:101F000006D04B4B5A684A4BE021C9000A435A603D
:101F1000474B5B68F022934319007B689A68444BF7
:101F20000A435A607B681B680122134040D07B68DB
:101F30005B68012B07D13E4B1A6880239B0213403C
:101F400014D101236EE07B685B68022B07D1384B0C
:101F50001A6880239B04134008D1012362E0344BAC
:101F60001B680222134001D101235BE0304B5B6808
:101F70000322934319007B685A682D4B0A435A6029
:101F8000FEF7A8F90300FB6009E0FEF7A3F90200E1
:101F9000FB68D31A274A934201D9032342E0244B1A
:101FA0005B680C221A407B685B689B009A42ECD10C
:101FB0001E4B1B68012213403A689A4211D21B4BF8
:101FC0001B68012293431900184B3A680A431A60B0
:101FD000164B1B68012213403A689A4201D0012334
:101FE00020E07B681B680422134009D0104B5B681B
:101FF000114A134019007B68DA680D4B0A435A6096
:1020000000F020F801000A4B5B681B090F22134007
:102010000A4AD35C0A00DA40094B1A600020FEF736
:1020200013F900231800BD4604B080BD0020024013
:102030000010024088130000FFF8FFFF6C680008E2
:102040001801002090B58FB000AF1423FB182C4A64
:1020500013CA13C312681A603B1D2A4A13CA13C35A
:1020600012681A600023FB620023BB6200237B63BB
:1020700000237B6200233B63234B5B68FB62FB6AAC
:102080000C221340042B02D0082B03D02FE01F4B4F
:102090003B632FE0FB6A9B0C0F2213401422BA18FB
:1020A000D35C7B62184BDB6A0F2213403A1DD35C72
:1020B000BB62FA6AC0235B021A4080235B029A4229
:1020C00009D1B96A1148FEF71FF803001A007B6AAC
:1020D00053437B6308E0B96A0C48FEF715F8030028
:1020E0001A007B6A53437B637B6B3B6302E0074BC5
:1020F0003B63C0463B6B1800BD460FB090BDC04669
:10210000A4670008B46700080010024000127A00BB
:1021100080B586B000AF786000233B610023FB6090
:102120007B681A6880235B02134000D18EE0172081
:102130003B1800221A705F4BDA6980235B0513405D
:1021400010D15C4BDA695B4B802149050A43DA61A7
:10215000584BDA6980235B051340BB60BB683B18B2
:1021600001221A70544B1A6880235B0013401AD165
:10217000514B1A68504B802149000A431A60FEF700
:10218000A9F803003B6108E0FEF7A4F802003B69F0
:10219000D31A642B01D9032387E0474B1A688023A5
:1021A0005B001340F0D0434B1A6AC0239B001340DE
:1021B000FB60FB68002B34D07B685A68C0239B000F
:1021C0001340FA689A422CD03A4B1B6A3B4A1340A0
:1021D000FB60384B1A6A374B802149020A431A6266
:1021E000344B1A6A334B36490A401A62314BFA684B
:1021F0001A62FB680122134013D0FEF76BF803004C
:102200003B6109E0FEF766F802003B69D31A2D4AEC
:10221000934201D9032348E0264B1B6A0222134054
:10222000F0D0244B1B6A254A134019007B685A687A
:10223000204B0A431A621723FB181B78012B05D188
:102240001C4BDA691B4B20490A40DA617B681B682A
:102250000122134009D0174B1B6B03229343190033
:102260007B689A68134B0A431A637B681B682022B9
:10227000134009D00F4B1B6B1022934319007B684E
:10228000DA680C4B0A431A637B681A6880239B0246
:10229000134009D0074B1B6B8022934319007B68C6
:1022A0001A69044B0A431A6300231800BD4606B09E
:1022B00080BDC0460010024000700040FFFCFFFFE0
:1022C000FFFFFEFF88130000FFFFFFEF80B584B023
:1022D00000AF78607B68002B01D101238AE07B6826
:1022E00000229A627B685D229B5CDBB2002B07D1E7
:1022F0007B685C22002199547B68180003F060FC25
:102300007B685D22022199547B681B681A687B6890
:102310001B6840218A431A607B68DA68E023DB008F
:102320009A4202D90023FB6002E080235B01FB603C
:102330007B68DA68F0231B019A4208D07B68DA6870
:10234000E023DB009A4202D07B6800229A627B681D
:102350001B6B002B0CD17B68DA68E023DB009A4210
:1023600003D97B6802221A6302E07B6801221A63A8
:102370007B685A687B689B681A437B681B691A43B1
:102380007B685B691A437B68996980239B000B40DB
:102390001A437B68DB691A437B681B6A1A43110086
:1023A0007B689A6A7B681B680A431A607B689B6932
:1023B0001B0C04221A407B685B6A1A437B685B6BC8
:1023C0001A437B68DB681A4311007B681B68FA6854
:1023D0000A435A607B681B68DA697B681B68074997
:1023E0000A40DA617B6800221A667B685D2201215F
:1023F000995400231800BD4604B080BDFFF7FFFFCD
:1024000080B58AB000AFF860B9607A601A00BB1C72
:102410001A8001237B622323FB1800221A70FB68B9
:102420005C229B5C012B01D102231FE2FB685C2232
:1024300001219954FDF74EFF0300FB611B203B185F
:10244000FA685D21525C1A70FB685B687B6112233D
:10245000FB18BA1C12881A801023FB18BA1C1288A9
:102460001A803B181B78012B11D07A6982235B00FC
:102470009A4207D1FB689B68002B03D13B181B785D
:10248000042B04D02323FB1802221A70E3E1BB685B
:10249000002B06D07B68002B03D0BB1C1B88002BB5
:1024A00004D12323FB1801221A70D4E1FB685D22BA
:1024B0009B5CDBB2042B03D0FB685D2205219954A1
:1024C000FB6800221A66FB687A681A64FB68BA1C0B
:1024D000462112885A52FB68BA1C442112885A526B
:1024E000FB68BA689A63FB68BA1C1288DA87FB68D3
:1024F000BA1C12889A87FB680022DA64FB68002203
:102500001A65FB68DA68E023DB009A4204D81023DE
:10251000FB181B88012B08D9FB681B685A68FB68ED
:102520001B68CB490A405A6008E0FB681B685A6880
:10253000FB681B68802149010A435A60FB681B68DD
:102540001B6840221340402B07D0FB681B681A68A9
:10255000FB681B6840210A431A60FB68DA68E023C5
:10256000DB009A4200D87FE0FB685B68002B05D057
:102570001223FB181B88012B00D069E0FB689B6BC2
:102580001A88FB681B68DA60FB689B6B9A1CFB6807
:102590009A63FB68DB8F9BB2013B9AB2FB68DA87D8
:1025A00056E0FB681B689B6802221340022B1BD17C
:1025B000FB68DB8F9BB2002B16D07B6A012B13D1FB
:1025C000FB689B6B1A88FB681B68DA60FB689B6B77
:1025D0009A1CFB689A63FB68DB8F9BB2013B9AB243
:1025E000FB68DA8700237B62FB681B689B6801221B
:1025F0001340012B1CD1FB6846229B5A9BB2002B37
:1026000016D0FB681B68DA68FB681B6C92B21A80F4
:10261000FB681B6C9A1CFB681A64FB6846229B5A79
:102620009BB2013B99B2FB684622995201237B621F
:10263000FDF750FE0200FB69D31A3A6B9A4207D8A5
:102640003B6B013304D02323FB1803221A7002E1F1
:10265000FB68DB8F9BB2002BA3D1FB6846229B5A01
:102660009BB2002B9DD1E2E0FB685B68002B05D09C
:102670001223FB181B88012B00D0CBE0FB68DB8FFB
:102680009BB2012B12D9FB689B6B1A88FB681B68F5
:10269000DA60FB689B6B9A1CFB689A63FB68DB8FB4
:1026A0009BB2023B9AB2FB68DA87B3E0FB689A6B95
:1026B000FB681B680C3312781A70FB689B6B5A1C02
:1026C000FB689A63FB68DB8F9BB2013B9AB2FB68A5
:1026D000DA879FE0FB681B689B6802221340022B8D
:1026E00034D1FB68DB8F9BB2002B2FD07B6A012B90
:1026F0002CD1FB68DB8F9BB2012B12D9FB689B6B43
:102700001A88FB681B68DA60FB689B6B9A1CFB6885
:102710009A63FB68DB8F9BB2023B9AB2FB68DA8755
:1027200012E0FB689A6BFB681B680C3312781A7016
:10273000FB689B6B5A1CFB689A63FB68DB8F9BB240
:10274000013B9AB2FB68DA8700237B62FB681B6857
:102750009B6801221340012B49D1FB6846229B5AFA
:102760009BB2002B43D0FB6846229B5A9BB2012BA5
:1027700024D9FB681B68DA68FB681B6C92B21A806C
:10278000FB681B6C9A1CFB681A64FB6846229B5A08
:102790009BB2023B99B2FB6846229952FB684622E3
:1027A0009B5A9BB2012B20D8FB681B685A68FB68B8
:1027B0001B68802149010A435A6016E0FB681B68C8
:1027C0000C331A00FB681B6C1278D2B21A70FB68CB
:1027D0001B6C5A1CFB681A64FB6846229B5A9BB20E
:1027E000013B99B2FB684622995201237B62FDF7B7
:1027F00071FD0200FB69D31A3A6B9A4202D83B6B17
:10280000013302D13B6B002B04D12323FB1803229D
:102810001A7020E0FB68DB8F9BB2002B00D059E7D9
:10282000FB6846229B5A9BB2002B00D052E7FA6904
:10283000396BFB68180000F001F9031E0AD023234E
:10284000FB1801221A70FB6820221A6603E0C046BA
:10285000FFEFFFFFC046FB685D2201219954FB6832
:102860005C22002199542323FB181B781800BD46D5
:102870000AB080BD80B584B000AFF860B9603B603D
:10288000FB1D1A7050E03B6801334DD0FDF722FD6F
:102890000200BB69D31A3A689A4202D93B68002BFE
:1028A00042D1FB681B685A68FB681B68E0218A43B9
:1028B0005A60FB685A6882235B009A4213D1FB6816
:1028C0009A6880231B029A4205D0FB689A6880238D
:1028D000DB009A4207D1FB681B681A68FB681B681B
:1028E00040218A431A60FB689A6A80239B019A42BE
:1028F00010D1FB681B681A68FB681B6814490A4002
:102900001A60FB681B681A68FB681B6880218901D4
:102910000A431A60FB685D2201219954FB685C221E
:102920000021995403230FE0FB681B689B68BA6879
:102930001340BA68D31A5A425341DBB21A00FB1D46
:102940001B789A429FD100231800BD4604B080BD79
:10295000FFDFFFFF80B584B000AFF860B9607A6038
:102960003B605CE0BA68C023DB009A4206D17B681A
:10297000002B03D1FB681B680C331B783B680133C9
:102980004DD0FDF7A7FC0200BB69D31A3A689A4202
:1029900002D93B68002B42D1FB681B685A68FB6870
:1029A0001B68E0218A435A60FB685A6882235B00F7
:1029B0009A4213D1FB689A6880231B029A4205D081
:1029C000FB689A688023DB009A4207D1FB681B688A
:1029D0001A68FB681B6840218A431A60FB689A6A80
:1029E00080239B019A4210D1FB681B681A68FB6820
:1029F0001B6811490A401A60FB681B681A68FB686B
:102A00001B68802189010A431A60FB685D2201214D
:102A10009954FB685C2200219954032308E0FB6869
:102A20001B689B68BA6813407A689A429AD100235F
:102A30001800BD4604B080BDFFDFFFFF80B586B043
:102A400002AFF860B9607A60BA68C0235901F868CB
:102A50007B68009313000022FFF77CFF031E07D062
:102A6000FB681B6E20221A43FB681A66032327E0CB
:102A7000BA68F8687B680093130000228021FFF792
:102A8000F9FE031E07D0FB681B6E20221A43FB6869
:102A90001A66032314E0BA68C023D900F8687B687B
:102AA000009313000022FFF755FF031E07D0FB68B9
:102AB0001B6E20221A43FB681A66032300E00023E2
:102AC0001800BD4604B080BD80B584B000AF78600A
:102AD0000E217B18084A1A807B6840229B5A9AB2C2
:102AE0007B181B88134399B27B68402299520023BC
:102AF0001800BD4604B080BD80BFFFFF80B584B024
:102B000000AF78600E217B180B4A1A807B68402248
:102B10009B5A9BB21BB27A180021525ED24312B26A
:102B200013401BB299B27B684022995200231800CF
:102B3000BD4604B080BDC04680BFFFFF84B090B5E5
:102B4000C64600B582B000AF786004201024A446C9
:102B50000824A046B844C4446044016042608360D5
:102B60007B684022012199527B68402200219952C2
:102B70007B684422002199527B685022002199529F
:102B80007B681800FFF7A0FF00231800BD4602B0C5
:102B900004BC904690BC08BC04B0184790B587B000
:102BA00000AF786039601723FB1800221A707A682A
:102BB0003B681B789B00D3181B889AB21423FB1820
:102BC000B2490A401A803B68DB78012B20D002DC36
:102BD000002B05D025E0022B0BD0032B0FD020E0DB
:102BE0001422BB18BA181288802189000A431A805F
:102BF0001CE01422BB18BA1812881A8016E014229E
:102C0000BB18BA181288C021C9000A431A800DE007
:102C10001422BB18BA1812888021C9000A431A80EE
:102C200004E01723FB1801221A70C0467A683B683B
:102C30001B789B00D3181422BA18128894490A43AF
:102C400092B21A807A683B681B789B00D3181B8865
:102C50009BB21BB28F4A13401AB23B681B781BB25F
:102C600013431BB29CB27A683B681B789B00D31855
:102C7000874A224392B21A803B681B7B002B00D00C
:102C80001AE13B685B78002B62D07C687B6850223D
:102C90009B5A9BB2E4183B681B78DB00E318802248
:102CA000D200944663441C003B68DB885B089BB2FF
:102CB000DB189BB223807A683B681B789B00D31893
:102CC0001B889CB222004023134012D07A683B68D4
:102CD0001B789B00D3181B889BB26E4A13409CB292
:102CE0007A683B681B789B00D3186B4A224392B2E8
:102CF0001A803B68DB78012B16D07A683B681B781A
:102D00009B00D3181B889BB2644A13409CB22023BB
:102D100063409CB27A683B681B789B00D3185C4A7E
:102D2000224392B21A801AE27A683B681B789B00B1
:102D3000D3181B889BB2594A13409CB27A683B68EF
:102D40001B789B00D318524A224392B21A8006E2A3
:102D50007C687B6850229B5A9BB2E4183B681B78C6
:102D6000DB00E3184E4A944663441C003B68DB8852
:102D70005B089BB2DB189BB223807C687B68502287
:102D80009B5A9BB2E4183B681B78DB00E318454A6A
:102D900094466344FB603B681B69002B0ED1FB68C3
:102DA0001B88414A13409AB2FB681A80FB681B8853
:102DB0003E4A13439AB2FB681A802BE03B681B69BA
:102DC0003E2B12D83B681B695B083B613B681B6963
:102DD0000122134002D03B6901333B613B699BB246
:102DE0009B029AB2FB681A8014E03B681B695B097E
:102DF0003B613B681B691F22134002D13B69013BC9
:102E00003B613B699BB29B029BB2284A13439AB237
:102E1000FB681A807A683B681B789B00D3181B8874
:102E20009CB222008023DB01134012D07A683B68F9
:102E30001B789B00D3181B889BB2164A13409CB288
:102E40007A683B681B789B00D318194A224392B2D8
:102E50001A807A683B681B789B00D3181B889BB24A
:102E6000144A13409CB280235B0163409CB28023D0
:102E70009B0163409CB27A683B681B789B00D31827
:102E8000034A224392B21A8069E1C0468F89FFFF4C
:102E90008080FFFF8F8FFFFFC080FFFFBF8FFFFF8E
:102EA0000404000006040000FF83FFFF0080FFFF12
:102EB00080C0FFFF8FBFFFFF7A683B681B789B00D5
:102EC000D3181B889BB2A94A13409CB27A683B680E
:102ED0001B789B00D318A64A224392B21A807C68C2
:102EE0007B6850229B5A9BB2E4183B681B78DB003E
:102EF000E3188022D200944663441C003B681B897F
:102F00005B089BB2DB189BB223807C687B685022F5
:102F10009B5A9BB2E4183B681B78DB00E318954A88
:102F2000944663441C003B685B895B089BB2DB18DA
:102F30009BB223803B685B78002B00D07EE07A68F0
:102F40003B681B789B00D3181B889CB2220080230F
:102F5000DB01134012D07A683B681B789B00D318C2
:102F60001B889BB2814A13409CB27A683B681B78ED
:102F70009B00D318804A224392B21A807A683B6839
:102F80001B789B00D3181B889CB22200402313405F
:102F900012D07A683B681B789B00D3181B889BB2C1
:102FA000724A13409CB27A683B681B789B00D31826
:102FB000724A224392B21A807A683B681B789B005F
:102FC000D3181B889BB2694A13409CB27A683B684D
:102FD0001B789B00D318694A224392B21A807A6800
:102FE0003B681B789B00D3181B889BB2644A134034
:102FF0009CB280235B0163409CB280239B016340B1
:103000009CB27A683B681B789B00D3185D4A2243C8
:1030100092B21A807A683B681B789B00D3181B8891
:103020009BB2594A13409CB27A683B681B789B005C
:10303000D318544A224392B21A8090E07A683B68CF
:103040001B789B00D3181B889CB222008023DB01D5
:10305000134012D07A683B681B789B00D3181B88FA
:103060009BB2424A13409CB27A683B681B789B0033
:10307000D318414A224392B21A807A683B681B787F
:103080009B00D3181B889CB222004023134012D00F
:103090007A683B681B789B00D3181B889BB2334A25
:1030A00013409CB27A683B681B789B00D318334A64
:1030B000224392B21A807A683B681B789B00D3182F
:1030C0001B889BB2294A13409CB27A683B681B78E4
:1030D0009B00D318284A224392B21A803B68DB78BF
:1030E000012B16D07A683B681B789B00D3181B888D
:1030F0009BB2254A13409CB2202363409CB27A685D
:103100003B681B789B00D3181E4A224392B21A8058
:1031100012E07A683B681B789B00D3181B889BB22F
:10312000194A13409CB27A683B681B789B00D318FD
:10313000144A224392B21A807A683B681B789B003B
:10314000D3181B889BB20E4A13409CB27A683B6826
:103150001B789B00D3180B4A224392B21A80172384
:10316000FB181B781800BD4607B090BD8F8FFFFF7E
:103170008081FFFF0404000080C0FFFFC080FFFFCC
:103180008FBFFFFF8080FFFFBF8FFFFF90B583B031
:1031900000AF786039603B681B7B002B68D13B68CF
:1031A0005B78002B31D07A683B681B789B00D31882
:1031B0001B889CB222004023134012D07A683B68DF
:1031C0001B789B00D3181B889BB2A54A13409CB266
:1031D0007A683B681B789B00D318A24A224392B2BC
:1031E0001A807A683B681B789B00D3181B889BB2B7
:1031F0009D4A13409CB27A683B681B789B00D318A9
:103200009A4A224392B21A8024E17A683B681B787A
:103210009B00D3181B889CB222008023DB01134043
:1032200012D07A683B681B789B00D3181B889BB22E
:103230008B4A13409CB27A683B681B789B00D3187A
:103240008B4A224392B21A807A683B681B789B00B3
:10325000D3181B889BB2874A13409CB27A683B689C
:103260001B789B00D318814A224392B21A80F1E066
:103270003B685B78002B00D076E07A683B681B786F
:103280009B00D3181B889CB222008023DB011340D3
:1032900012D07A683B681B789B00D3181B889BB2BE
:1032A0006F4A13409CB27A683B681B789B00D31826
:1032B0006F4A224392B21A807A683B681B789B005F
:1032C000D3181B889CB222004023134012D07A6886
:1032D0003B681B789B00D3181B889BB2604A134045
:1032E0009CB27A683B681B789B00D3185D4A2243E6
:1032F00092B21A807A683B681B789B00D3181B88AF
:103300009BB2574A13409CB27A683B681B789B007B
:10331000D318544A224392B21A807A683B681B78C9
:103320009B00D3181B889BB2524A13409CB27A6808
:103330003B681B789B00D3184C4A224392B21A80F8
:103340007A683B681B789B00D3181B889BB2464A5F
:1033500013409CB27A683B681B789B00D318434AA1
:10336000224392B21A8075E07A683B681B789B0012
:10337000D3181B889CB222008023DB01134012D09B
:103380007A683B681B789B00D3181B889BB2344A31
:1033900013409CB27A683B681B789B00D318344A70
:1033A000224392B21A807A683B681B789B00D3183C
:1033B0001B889CB222004023134012D07A683B68DD
:1033C0001B789B00D3181B889BB2254A13409CB2E4
:1033D0007A683B681B789B00D318224A224392B23A
:1033E0001A807A683B681B789B00D3181B889BB2B5
:1033F0001B4A13409CB27A683B681B789B00D31829
:103400001B4A224392B21A807A683B681B789B0061
:10341000D3181B889BB2144A13409CB27A683B684D
:103420001B789B00D318114A224392B21A807A6803
:103430003B681B789B00D3181B889BB20D4A134036
:103440009CB27A683B681B789B00D318074A2243DA
:1034500092B21A8000231800BD4603B090BDC0464A
:103460008F8FFFFFC080FFFFBF8FFFFF8080FFFFB8
:1034700080C0FFFF8FBFFFFF90B595B000AF7860B1
:1034800039603B685B78012B00D063E13B689A6947
:103490003B681B699A4209D93B681B69BB643B685E
:1034A0009A69BB6CD21A3B689A6105E03B689B69DC
:1034B000BB643B6800229A613B681B7B002B1BD1DD
:1034C0003B6859693B68DA88BB6C9BB2786800F04E
:1034D000BBFB7C687B6850229B5A9BB2E4183B681C
:1034E0001B78DB00E318CC4A944663443B63BB6C17
:1034F0009AB23B6B1A8013E17A683B681B789B0099
:10350000D3181B889BB21A004023134067D07C68F5
:103510003B685B78002B47D17C687B6850229B5AC4
:103520009BB2E4183B681B78DB00E318BB4A944667
:103530006344FB62BB6C002B0ED1FB6A1B88B84A4C
:1035400013409AB2FB6A1A80FB6A1B88B54A134380
:103550009AB2FB6A1A803CE0BB6C3E2B10D8BB6C65
:103560005B087B64BB6C0122134002D07B6C01338F
:103570007B647B6C9BB29B029AB2FB6A1A8028E048
:10358000BB6C5B097B64BB6C1F22134002D17B6C5C
:10359000013B7B647B6C9BB29B029BB2A14A1343B1
:1035A0009AB2FB6A1A8014E03B685B78012B10D159
:1035B0007B6850229B5A9BB2E4183B681B78DB0067
:1035C000E318964A94466344BB62BB6C9AB2BB6AEA
:1035D0001A804E23FB183A6852891A8066E03B68CD
:1035E0005B78002B47D17C687B6850229B5A9BB24A
:1035F000E4183B681B78DB00E318874A9446634471
:103600007B62BB6C002B0ED17B6A1B88844A134003
:103610009AB27B6A1A807B6A1B88824A13439AB2E9
:103620007B6A1A803DE0BB6C3E2B10D8BB6C5B08FC
:103630003B64BB6C0122134002D03B6C01333B6402
:103640003B6C9BB29B029AB27B6A1A8029E0BB6CEE
:103650005B093B64BB6C1F22134002D13B6C013BF6
:103660003B643B6C9BB29B029BB26E4A13439AB283
:103670007B6A1A8015E03B685B78012B11D17C686E
:103680007B6850229B5A9BB2E4183B681B78DB0096
:10369000E318614A944663443B62BB6C9AB23B6A4E
:1036A0001A804E23FB183A6812891A803B685969C0
:1036B000BB6C9CB24E23FB181A887868230000F07C
:1036C000C3FA3B685B78002B13D17A683B681B78A0
:1036D0009B00D3181B889BB2534A13409CB27A6854
:1036E0003B681B789B00D318504A224392B21A8041
:1036F00016E03B685B78012B12D17A683B681B7837
:103700009B00D3181B889BB2474A13409CB27A682F
:103710003B681B789B00D318454A224392B21A801B
:103720007A683B681B789B00D3181B889BB2414A80
:1037300013409CB2102363409CB2202363409CB290
:103740007A683B681B789B00D3183B4A224392B2AD
:103750001A8052E13B689A693B681B699A4209D911
:103760003B681B69BB643B689A69BB6CD21A3B68B7
:103770009A6105E03B689B69BB643B6800229A61E3
:103780003B681B7B002B59D17C687B6850229B5A7D
:103790009BB2E4183B681B78DB00E3181F4A944691
:1037A0006344FB61BB6C002B0ED1FB691B881C4A78
:1037B00013409AB2FB691A80FB691B88194A1343AC
:1037C0009AB2FB691A80FDE0BB6C3E2B10D8BB6C33
:1037D0005B08FB63BB6C0122134002D0FB6B01331F
:1037E000FB63FB6B9BB29B029AB2FB691A80E9E018
:1037F000BB6C5B09FB63BB6C1F22134002D1FB6BEC
:10380000013BFB63FB6B9BB29B029BB2054A1343DC
:103810009AB2FB691A80D5E0020400000604000099
:10382000FF83FFFF0080FFFF8F8FFFFFC080FFFF40
:1038300080C0FFFFBF8FFFFF8080FFFF3B685B788A
:10384000002B47D17C687B6850229B5A9BB2E418BE
:103850003B681B78DB00E3186A4A94466344BB610B
:10386000BB6C002B0ED1BB691B88674A13409AB210
:10387000BB691A80BB691B88644A13439AB2BB694F
:103880001A803DE0BB6C3E2B10D8BB6C5B08BB6361
:10389000BB6C0122134002D0BB6B0133BB63BB6B1B
:1038A0009BB29B029AB2BB691A8029E0BB6C5B0990
:1038B000BB63BB6C1F22134002D1BB6B013BBB63DC
:1038C000BB6B9BB29B029BB2504A13439AB2BB693B
:1038D0001A8015E03B685B78012B11D17C687B680E
:1038E00050229B5A9BB2E4183B681B78DB00E3181C
:1038F000444A944663447B61BB6C9AB27B691A80EC
:103900007C683B685B78002B47D17C687B685022E1
:103910009B5A9BB2E4183B681B78DB00E3183C4AD7
:10392000944663443B61BB6C002B0ED13B691B8802
:10393000354A13409AB23B691A803B691B88334A67
:1039400013439AB23B691A803CE0BB6C3E2B10D803
:10395000BB6C5B087B63BB6C0122134002D07B6BAA
:1039600001337B637B6B9BB29B029AB23B691A80EB
:1039700028E0BB6C5B097B63BB6C1F22134002D148
:103980007B6B013B7B637B6B9BB29B029BB21F4AB1
:1039900013439AB23B691A8014E03B685B78012BB1
:1039A00010D17B6850229B5A9BB2E4183B681B786D
:1039B000DB00E318164A94466344FB60BB6C9AB282
:1039C000FB681A807A683B681B789B00D3181B88B9
:1039D0009BB2104A13409CB280235B0163409CB2AF
:1039E00080239B0163409CB27A683B681B789B00F4
:1039F000D318094A224392B21A8000231800BD4608
:103A000015B090BD02040000FF83FFFF0080FFFFA0
:103A1000060400008FBFFFFF8080FFFF90B583B0DA
:103A200000AF786039603B685B78002B16D07A680D
:103A30003B681B789B00D3181B889BB2154A134028
:103A40009CB2102363409CB27A683B681B789B0051
:103A5000D318114A224392B21A8016E07A683B6862
:103A60001B789B00D3181B889BB20C4A13409CB256
:103A700080235B0163409CB27A683B681B789B00A3
:103A8000D318054A224392B21A8000231800BD467B
:103A900003B090BDBF8FFFFF8080FFFF8FBFFFFF90
:103AA00090B583B000AF786039603B681B7B002B1A
:103AB00000D076E03B685B78002B38D07A683B68B2
:103AC0001B789B00D3181B889CB222004023134014
:103AD00012D07A683B681B789B00D3181B889BB276
:103AE000324A13409CB27A683B681B789B00D3181B
:103AF0002F4A224392B21A803B68DB78012B50D0C8
:103B00007A683B681B789B00D3181B889BB2294AB4
:103B100013409CB2202363409CB27A683B681B78B8
:103B20009B00D318244A224392B21A8039E07A6863
:103B30003B681B789B00D3181B889CB22200802313
:103B4000DB01134012D07A683B681B789B00D318C6
:103B50001B889BB2154A13409CB27A683B681B785D
:103B60009B00D318154A224392B21A807A683B68A8
:103B70001B789B00D3181B889BB2114A13409CB240
:103B800080235B0163409CB280239B0163409CB215
:103B90007A683B681B789B00D318074A224392B28D
:103BA0001A8000231800BD4603B090BD8F8FFFFF21
:103BB000C080FFFFBF8FFFFF8080FFFF80C0FFFF3F
:103BC0008FBFFFFF80B582B000AF78600A00FB1C9A
:103BD0001A70FB1C1B78002B03D17B684C228021C0
:103BE000995200231800BD4602B080BD80B582B056
:103BF00000AF78607B6858229B5A9BB2054A1343FA
:103C000099B27B685822995200231800BD4602B031
:103C100080BDC0460080FFFF80B584B000AF7860F3
:103C20007B6844229B5A9BB2FB60FB681800BD4630
:103C300004B080BD80B582B000AF786039600023E9
:103C40001800BD4602B080BD80B58CB000AFF860F2
:103C5000B9601900BB1D1A803B1D0A1C1A803B1D50
:103C60001B8801335B083B62FB68FB61BB687B62BE
:103C7000BB1D1A88FB69D3188022D2009446634486
:103C8000BB623B6AFB621BE07B6A1B78BB617B6AA1
:103C900001337B627B6A1B789BB21B029BB21A00CA
:103CA000BB6913437B617B699AB2BB6A1A80BB6AAA
:103CB0000233BB627B6A01337B62FB6A013BFB62BE
:103CC000FB6A002BE0D1C046BD460CB080BD80B57C
:103CD0008AB000AFF860B9601900BB1D1A803B1DA7
:103CE0000A1C1A803B1D1B885B089BB2BB61FB68EA
:103CF0007B61BB68FB61BB1D1A887B69D31880227E
:103D0000D200944663443B62BB697B6218E03B6A25
:103D10001B889BB23B613B6A02333B623B69DAB270
:103D2000FB691A70FB690133FB613B691B0ADAB25C
:103D3000FB691A70FB690133FB617B6A013B7B62A3
:103D40007B6A002BE3D13B1D1B88012213409BB2F1
:103D5000002B07D03B6A1B889BB23B613B69DAB200
:103D6000FB691A70C046BD460AB080BD80B584B0FC
:103D700000AF78600A00FB1C1A700F23FB180022AA
:103D80001A707B681B7C002B16D180239B007868FF
:103D90000222812102F07BF97B680122DA62802312
:103DA0009B0078680222012102F071F97A68B6233B
:103DB0005B000121D15013E0786840230222812169
:103DC00002F065F97B680122DA62786840230222FA
:103DD000012102F05CF97A68B6235B000121D15021
:103DE000786808230322822102F051F97B680122BE
:103DF0001A6487239B00180002F0DCFA01007A683D
:103E0000AE239B00D1507A68AE239B00D358002B81
:103E100004D10F23FB1801221A702CE07A68AE231C
:103E20009B00D358BB607A68AF239B00D3581B68B4
:103E30009847BA6885239B000021D150BA68862331
:103E40009B000021D1507B681B7C002B0AD1BA68F3
:103E500081239B00D25880239B007868012102F0C7
:103E60005BFA08E0BA6881239B00D2587868402347
:103E7000012102F051FA0F23FB181B781800BD46F0
:103E800004B080BD80B584B000AF78600A00FB1C30
:103E90001A700F23FB1800221A707B68812118000A
:103EA00002F02CF97B680022DA627B68012118009D
:103EB00002F024F97A68B6235B000021D1507B68B8
:103EC0008221180002F01AF97B6800221A647A68CD
:103ED000AE239B00D358002B11D07A68AF239B00F0
:103EE000D3585B6898477A68AE239B00D358180074
:103EF00002F06CFA7A68AE239B000021D1500F23A8
:103F0000FB181B781800BD4604B080BD80B586B094
:103F100000AF786039607A68AE239B00D3583B616C
:103F20000F23FB1800221A700C23FB1800221A80A2
:103F30001723FB1800221A703B681B781A006023B5
:103F400013403DD0202B00D092E03B68DB88002B53
:103F50002BD03B681B785BB2002B12DA7A68AF2358
:103F60009B00D3589B683A68507839693A68D28880
:103F7000984739693B68DA887B68180001F071FB63
:103F800081E03B6859783A6980239B00D1543B68B3
:103F9000DB88D9B23B693F4A995439693B68DA8872
:103FA0007B68180001F090FB6DE07A68AF239B00FE
:103FB000D3589B683A68507839680022984762E085
:103FC0003B685B780A2B1CD00B2B33D0002B42D1E3
:103FD0007A68A7239B00D35C032B07D10C23F91825
:103FE0007B680222180001F03CFB40E03A687B68E5
:103FF0001100180001F0B7FA1723FB1802221A70FB
:1040000035E07A68A7239B00D35C032B07D10F23ED
:10401000F9187B680122180001F023FB27E03A68B9
:104020007B681100180001F09EFA1723FB1802228A
:104030001A701CE07A68A7239B00D35C032B15D071
:104040003A687B681100180001F08DFA1723FB18FD
:1040500002221A700AE03A687B681100180001F029
:1040600082FA1723FB1802221A7000E0C0460AE009
:104070003A687B681100180001F075FA1723FB18E5
:1040800002221A70C0461723FB181B781800BD4681
:1040900006B080BD0102000080B584B000AF78603A
:1040A0000A00FB1C1A707A68AE239B00D358FB6091
:1040B0007A68B0239B00D358BB607A68AE239B001C
:1040C000D358002B3BD0FB1C1A78796813009B0057
:1040D0009B189B00CB181C331B68002B28D0FB1CA3
:1040E0001A78796813009B009B189B00CB181C332F
:1040F0001868FB1C1B78BA685B01D31838331B683F
:104100001900FCF787F80B1E12D1FB1C1A7879688E
:1041100013009B009B189B00CB181C3300221A60D5
:10412000FB1C197878680023002202F0BEF804E036
:10413000FA6885239B000021D150002300E0022370
:104140001800BD4604B080BD80B584B000AF786073
:104150000A00FB1C1A707A68AE239B00D358FB60E0
:10416000FB1C1A787B681100180002F00CF90100A2
:10417000FA6883239B00D1507A68AE239B00D35802
:10418000002B11D07A68AF239B00D358DB68F96805
:10419000812292008858FA68832189008C46624403
:1041A00011009847002300E002231800BD4604B028
:1041B00080BD000090B585B000AF78607A68AE230E
:1041C0009B00D358FB607A68AF239B00D358002B29
:1041D0001AD0FA6880239B00D35CFF2B14D07A6836
:1041E000AF239B00D3589B68F96880229200885CBB
:1041F000FC68FA680749525C92B221009847FA6855
:1042000080239B00FF21D15400231800BD4605B038
:1042100090BDC0460102000080B582B000AF78605A
:104220007B6843221A80024B1800BD4602B080BD55
:104230009000002080B582B000AF78607B68432298
:104240001A80024B1800BD4602B080BD4C00002011
:1042500080B582B000AF78607B6843221A80024B41
:104260001800BD4602B080BDD400002080B582B0E9
:1042700000AF78607B680A221A80024B1800BD46A6
:1042800002B080BD0800002080B584B000AF786027
:1042900039600F203B1802221A703B68002B07D0B0
:1042A0007A68AF239B003968D1503B1800221A70FE
:1042B0000F23FB181B781800BD4604B080BD80B5E5
:1042C00086B000AFF860B960BB1D1A80FA68AE23F3
:1042D0009B00D3587B617A6982239B00B968D150D7
:1042E000BB1D19887A6984239B00D15000231800D4
:1042F000BD4606B080BD80B584B000AF786039603F
:104300007A68AE239B00D358FB60FA6881239B0038
:104310003968D15000231800BD4604B080BD80B577
:1043200084B000AF78607A68AE239B00D358FB60FE
:104330007A68AE239B00D358002B19D07B681B7C76
:10434000002B0AD1FA6881239B00D25880239B005E
:104350007868012101F0E0FF08E0FA6881239B0002
:10436000D25878684023012101F0D6FF002300E0F5
:1043700002231800BD4604B080BD80B584B000AFF4
:10438000F860B960FB1D1A70FB68002B01D1022395
:1043900020E0FA68AD239B00D358002B04D0FA68C4
:1043A000AD239B000021D150BB68002B04D0FA68DC
:1043B000AC239B00B968D150FA68A7239B00012168
:1043C000D154FB68FA1D12781A70FB68180001F0CE
:1043D000D5FD00231800BD4604B080BD80B584B073
:1043E00000AF786039600F203B1800221A703B68DC
:1043F000002B08D07A68AD239B003968D1503B1858
:1044000000221A7003E00F23FB1802221A700F23F8
:10441000FB181B781800BD4604B080BD80B582B083
:1044200000AF78607B68180001F00CFE00231800D4
:10443000BD4602B080BD80B582B000AF7860002379
:104440001800BD4602B080BD90B585B000AF786061
:104450000A00FB1C1A700F243B1902221A707A689A
:10446000AD239B00D358002B0ED07A68AD239B0060
:10447000D3581B68FA1C11787A6810009847031EFD
:1044800002D13B1900221A700F23FB181B78180069
:10449000BD4605B090BD80B582B000AF78600A001F
:1044A000FB1C1A707A68AD239B00D3585B68FA1C1A
:1044B00011787A681000984700231800BD4602B0B2
:1044C00080BD000080B582B000AF786039607B6845
:1044D000AA229200944663443A681100180001F041
:1044E00007F87A68A5239B000121D1507B68224AF6
:1044F0009B5A19007A68A6239B00D1507A68AA2398
:104500009B00D35C1A001F231340012B0ED0002BFD
:1045100002D0022B14D01DE07B68AA2292009A18C8
:104520007B681100180000F00FFA20E07B68AA22D7
:1045300092009A187B681100180000F077FA16E0D4
:104540007B68AA2292009A187B681100180000F07C
:10455000C3FA0CE07A68AA239B00D35C7F229343C2
:10456000DAB27B681100180001F0F3FDC0460023A9
:104570001800BD4602B080BDAE02000080B586B016
:1045800000AFF8607A600B203B180A1C1A703B18C9
:104590001B78002B54D1FB685533FF337B61FA68DD
:1045A000A5239B00D358032B39D17B69DA687B693B
:1045B0001B699A4219D97B69DA687B691B69D21A2F
:1045C0007B69DA607B69DA687B691B699A4203D28E
:1045D0007B69DB689BB202E07B691B699BB27968EF
:1045E000F8681A0001F094F845E0FA68AD239B00E2
:1045F000D3581B69002B0DD0FA68A7239B00D35C0E
:10460000032B07D1FA68AD239B00D3581B69FA68C6
:1046100010009847FB68180001F08DF82BE0FA684D
:10462000A5239B00D358052B25D1FA68A5239B0011
:104630000021D150FB680021180001F08AFD1AE02A
:10464000FA68AD239B00D3589B69002B11D0FA6800
:10465000A7239B00D35C032B0BD1FA68AD239B00EF
:10466000D3589B690B22BA181178FA681000984742
:1046700001E0022300E000231800BD4606B080BD23
:1046800080B586B000AFF8607A600B203B180A1C3A
:104690001A703B181B78002B00D08EE0FB68143397
:1046A0007B61FA68A5239B00D358022B64D17B69F8
:1046B000DA687B691B699A4215D97B69DA687B697C
:1046C0001B69D21A7B69DA607B69DB689AB2796808
:1046D000FB68180000F0E5FFF868002300220021C5
:1046E00001F01AFE59E07B699A687B691B69190021
:1046F0001000FBF78FFD0B1E1FD17B699A687B6949
:104700001B699A4219D37B699A68F968A6239B00B2
:10471000CB589A4211D2FB6800220021180000F009
:10472000C0FFFA68A6239B000021D150F86800233F
:104730000022002101F0F0FD2FE0FA68AD239B007C
:10474000D358DB68002B0DD0FA68A7239B00D35CFD
:10475000032B07D1FA68AD239B00D358DB68FA68B6
:1047600010009847FB688021180001F0F2FCFB68FC
:10477000180000F0F4FF10E0FA68A5239B00D3585E
:10478000042B05D0FA68A5239B00D358002B04D135
:10479000FB688021180001F0DCFCFA68A8239B006C
:1047A000D35C012B24D1FB681800FFF744FEFA68A4
:1047B000A8239B000021D1541AE0FA68AD239B0086
:1047C000D3585B69002B11D0FA68A7239B00D35CF8
:1047D000032B0BD1FA68AD239B00D3585B690B22E6
:1047E000BA181178FA681000984701E0022300E037
:1047F00000231800BD4606B080BD80B582B000AF72
:104800007860786840230022002101F040FC7A683B
:10481000AC235B000121D1507A68B2235B004021B8
:10482000D150786840230022802101F030FC7B6861
:1048300001229A617B6840225A627A68A7239B0012
:104840000121D1547A68A5239B000021D1507B68B7
:1048500000225A607A68A9239B000021D1507A680F
:10486000AE239B00D358002B0AD07A68AD239B005F
:10487000D3585A687B685B68D9B27B681800904748
:1048800000231800BD4602B080BD80B582B000AFE5
:1048900078600A00FB1C1A707B68FA1C12781A7484
:1048A00000231800BD4602B080BD000080B582B074
:1048B00000AF78607A68A7239B00D15C7B68064ACA
:1048C00099547A68A7239B000421D154002318002F
:1048D000BD4602B080BDC0469D02000080B582B0DA
:1048E00000AF78607A68A7239B00D35C042B06D1C5
:1048F0007B68054A995C7A68A7239B00D154002302
:104900001800BD4602B080BD9D02000080B582B097
:1049100000AF78607A68A7239B00D35C032B0ED18D
:104920007A68AD239B00D358DB69002B07D07A68E7
:10493000AD239B00D358DB697A68100098470023A9
:104940001800BD4602B080BD80B584B000AF78606D
:1049500039600F23FB1800221A703B681B781A007D
:1049600060231340202B04D0402B02D0002B0AD010
:104970004BE07A68AD239B00D3589B6839687A680E
:104980001000984748E03B685B78092B35D89A00BF
:10499000254BD3181B689F463A687B6811001800A6
:1049A00000F04CFA30E03A687B681100180000F023
:1049B000F7FB29E03A687B681100180000F044FC1E
:1049C00022E03A687B681100180000F0E1FC1BE06F
:1049D0003A687B681100180000F014FD14E03A6892
:1049E0007B681100180000F047FD0DE03A687B6815
:1049F0001100180000F056FD06E03A687B681100CF
:104A0000180000F0B0FDC04606E03A687B6811006F
:104A1000180000F0A8FDC0460F23FB181B781800F3
:104A2000BD4604B080BDC0460C680008B0B584B077
:104A300000AF786039600F23FB1800221A703B68C2
:104A40001B781A0060231340202B03D0402B01D089
:104A5000002B35D17A68A7239B00D35C013B022B46
:104A600025D83B689B88DBB2012B19D87A68AD2327
:104A70009B00D3589B680F257C1939687A68100011
:104A80009847030023703B68DB88002B16D17B1905
:104A90001B78002B12D17B68180000F04CFE0DE053
:104AA0003A687B681100180000F05DFD06E03A6886
:104AB0007B681100180000F056FD00E0C04606E0DB
:104AC0003A687B681100180000F04DFDC0460023D5
:104AD0001800BD4604B0B0BDB0B584B000AF78607A
:104AE00039600F23FB1800221A703B689A880E2346
:104AF000FB181A703B681B781A0060231340202BA8
:104B000004D0402B02D0002B0AD089E17A68AD2373
:104B10009B00D3589B6839687A681000984786E1F3
:104B20003B681B781A0060231340202B0FD17A6852
:104B3000AD239B00D3589B680F257C1939687A6890
:104B400010009847030023707B191B7872E13B68C3
:104B50005B78012B50D0032B03D0002B00D190E0C9
:104B600056E17A68A7239B00D35C022B02D0032B6B
:104B70001DD039E00E22BB181B78002B10D0BB18BB
:104B80001B78802B0CD0BB181A787B68110018009A
:104B900001F0DFFA7B688021180001F0DAFA2AE0E0
:104BA0003A687B681100180000F0DDFC23E03B68E8
:104BB0005B88002B13D10E22BB181B78002B0ED064
:104BC000BB181B78802B0AD03B68DB88002B06D1F2
:104BD000BB181A787B681100180001F0BAFA7B68DC
:104BE000180000F0A8FD06E03A687B681100180084
:104BF00000F0B9FCC04612E17A68A7239B00D35CA1
:104C0000022B02D0032B1DD032E00E22BB181B78E2
:104C1000002B10D0BB181B78802B0CD0BB181A7837
:104C20007B681100180001F094FA7B68802118005D
:104C300001F08FFA24E03A687B681100180000F058
:104C400092FC1DE03B685B88002B18D10E217B187D
:104C50001B787F22134006D07B181A787B681100DE
:104C6000180001F0A1FA7B68180000F064FD06E06E
:104C70003A687B681100180000F075FC00E0C0463F
:104C8000CDE07A68A7239B00D35C022B02D0032BD4
:104C90003CD0B5E00E22BB181B78002B0AD0BB1805
:104CA0001B78802B06D03A687B681100180000F052
:104CB0005AFCACE00E22BB181B785BB2002B0CDA5E
:104CC000BB181B787F221A4013009B009B189B0087
:104CD00010337A68D31804330DE00E23FB181B78C9
:104CE0007F221A4013009B009B189B005133FF3317
:104CF0007A68D3180433BB60BB6800221A60B968B5
:104D00007B680222180000F0ACFC80E00E22BB1889
:104D10001B785BB2002B14DABB181B780F221A40E9
:104D2000796813009B009B189B00CB1818331B68F5
:104D3000002B1ED13A687B681100180000F013FCAC
:104D400065E00E23FB181B780F221A407868AC230D
:104D5000590013009B009B189B00C3185B181B682D
:104D6000002B06D13A687B681100180000F0FBFBAD
:104D70004DE00E22BB181B785BB2002B0CDABB187F
:104D80001B787F221A4013009B009B189B00103356
:104D90007A68D31804330DE00E23FB181B787F22AA
:104DA0001A4013009B009B189B005133FF337A6815
:104DB000D3180433BB600E22BB181B78002B03D022
:104DC000BB181B78802B03D1BB6800221A6010E04F
:104DD0000E23FB181A787B681100180001F00FFAF7
:104DE000031E03D0BB6801221A6002E0BB680022E8
:104DF0001A60B9687B680222180000F032FC06E0F5
:104E00003A687B681100180000F0ADFBC04606E070
:104E10003A687B681100180000F0A5FBC04606E068
:104E20003A687B681100180000F09DFBC0460F2314
:104E3000FB181B781800BD4604B0B0BD80B584B027
:104E400000AF786039600823FB1800221A80002325
:104E5000FB600B23FB1800221A703B685B881B0A5F
:104E60009BB2072B00D959E19A00CB4BD3181B6892
:104E70009F467A68AC239B00D3581B687A68127CE3
:104E800008217918100098470300FB6053E17B6804
:104E90001B7C002B0FD17A68AD239B00D3589B6AF3
:104EA0000822BA18100098470300FB60FB68013322
:104EB00002221A703FE17A68AD239B00D358DB6A67
:104EC0000822BA18100098470300FB60FB68013302
:104ED00002221A702FE13B685B88DBB2052B00D9F8
:104EE000D0E09A00AD4BD3181B689F467A68AC237C
:104EF0009B00D3585B68002B0DD07A68AC239B00D5
:104F0000D3585B687A68127C08217918100098479A
:104F10000300FB60C3E03A687B681100180000F0F2
:104F200022FB0B217B181A787B1801321A70B6E02D
:104F30007A68AC239B00D3589B68002B0DD07A680D
:104F4000AC239B00D3589B687A68127C082179189F
:104F5000100098470300FB60A1E03A687B681100ED
:104F6000180000F000FB0B217B181A787B18013227
:104F70001A7094E07A68AC239B00D358DB68002B4E
:104F80000DD07A68AC239B00D358DB687A68127C1A
:104F900008217918100098470300FB607FE03A6809
:104FA0007B681100180000F0DEFA0B217B181A78DC
:104FB0007B1801321A7072E07A68AC239B00D358D8
:104FC0001B69002B0DD07A68AC239B00D3581B695A
:104FD0007A68127C08217918100098470300FB605A
:104FE0005DE03A687B681100180000F0BCFA0B2104
:104FF0007B181A787B1801321A7050E07A68AC235B
:105000009B00D3585B69002B0DD07A68AC239B00C2
:10501000D3585B697A68127C082179181000984788
:105020000300FB603BE03A687B681100180000F069
:105030009AFA0B217B181A787B1801321A702EE02D
:105040007A68AC239B00D3589B69002B0DD07A68FB
:10505000AC239B00D3589B697A68127C082179188D
:10506000100098470300FB6019E03A687B68110064
:10507000180000F078FA0B217B181A787B1801329F
:105080001A700CE03A687B681100180000F06BFAA7
:105090000B217B181A787B1801321A704BE04AE01A
:1050A0007B681B7C002B0BD17A68AD239B00D35807
:1050B0005B6B0822BA18100098470300FB603AE0C7
:1050C0003A687B681100180000F04DFA0B217B183C
:1050D0001A787B1801321A702DE07B681B7C002B3C
:1050E0000FD17A68AD239B00D3581B6B0822BA18E6
:1050F000100098470300FB60FB68013307221A7019
:1051000019E03A687B681100180000F02CFA0B21B6
:105110007B181A787B1801321A700CE03A687B68A9
:105120001100180000F01FFA0B217B181A787B1869
:1051300001321A70C0460B23FB181B78002B27D1B5
:1051400008217B181B88002B19D03B68DB88002BBB
:1051500015D03B68DA887B181B88181C111C8AB292
:1051600083B29A4200D9011C8AB208217B181A80A6
:105170007B181A88F9687B68180000F072FA3B689F
:10518000DB88002B05D17B68180000F0D4FA00E022
:10519000C046BD4604B080BD3468000854680008AD
:1051A00090B585B000AF786039603B689B88002B74
:1051B0003DD13B68DB88002B39D13B685B887F2B76
:1051C00035D83B685B88DAB20F23FB187F210A4091
:1051D0001A707A68A7239B00D35C032B06D13A6828
:1051E0007B681100180000F0BEF926E07B680F24F0
:1051F0003A19144912785A543B191A787B681100ED
:10520000180001F027F87B68180000F094FA3B19A9
:105210001B78002B05D07A68A7239B000221D1546C
:105220000BE07A68A7239B000121D15405E03A687E
:105230007B681100180000F096F9C046BD4605B025
:1052400090BDC0469E02000080B582B000AF78607D
:1052500039603B685B88DAB24C4B1A704B4B1B7859
:10526000012B06D93A687B681100180000F07BF921
:1052700088E07A68A7239B00D35C022B02D0032B23
:1052800029D071E0414B1B78002B1FD03F4B1B787E
:105290001A007B685A607A68A7239B000321D154C7
:1052A0003A4B1A787B6811001800FFF7CDF803001D
:1052B000022B06D13A687B681100180000F053F900
:1052C00060E07B68180000F036FA5BE07B6818004D
:1052D00000F031FA56E02D4B1B78002B15D17A687F
:1052E000A7239B000221D154284B1B781A007B680E
:1052F0005A60264B1A787B6811001800FFF7CBF82C
:105300007B68180000F017FA3CE0204B1B781A006D
:105310007B685B689A4222D07B685B68DAB27B6804
:1053200011001800FFF7B7F8184B1B781A007B68BC
:105330005A60164B1A787B6811001800FFF784F842
:105340000300022B06D13A687B681100180000F0B8
:105350000AF917E07B68180000F0EDF912E07B68AD
:10536000180000F0E8F90DE03A687B6811001800B9
:1053700000F0F9F8054B1A787B6811001800FFF768
:105380008AF8C046BD4602B080BDC0469C010020E0
:1053900080B582B000AF786039603B68DB88012B54
:1053A00006D03A687B681100180000F0DCF825E0B0
:1053B0007A68A7239B00D35C002B18DD022B02DD4B
:1053C000032B0CD013E07B6800229A607B680833C3
:1053D00019007B680122180000F043F90EE07B6899
:1053E000191D7B680122180000F03BF906E03A68BD
:1053F0007B681100180000F0B6F8C046C046BD46F4
:1054000002B080BD80B582B000AF786039607A6844
:10541000A7239B00D35C013B022B22D83B68DB888F
:10542000022B06D03A687B681100180000F09BF848
:105430001EE07B680122DA607A68A9239B00D358BA
:10544000002B05D07B68DB6802221A437B68DA6098
:105450007B680C3319007B680222180000F001F908
:1054600006E03A687B681100180000F07CF8C0463E
:10547000C046BD4602B080BD80B582B000AF786046
:1054800039603B685B88012B08D17A68A9239B00AF
:105490000121D1507B68180000F04DF9C046BD468F
:1054A00002B080BD80B582B000AF786039607A68A4
:1054B000A7239B00D35C013B022B0DD83B685B8884
:1054C000012B10D17A68A9239B000021D1507B6861
:1054D000180000F030F906E03A687B681100180007
:1054E00000F041F800E0C046C046BD4602B080BDB5
:1054F00080B582B000AF786039603B681A787B680D
:105500001A703B685A787B685A703B6802331B7884
:105510009AB23B6803331B789BB21B029BB2D31831
:105520009AB27B685A803B6804331B789AB23B6816
:1055300005331B789BB21B029BB2D3189AB27B68CF
:105540009A803B6806331B789AB23B6807331B7816
:105550009BB21B029BB2D3189AB27B68DA80C0461A
:10556000BD4602B080BD80B582B000AF78603960C2
:105570007B688021180000F0ECFD7B68002118009A
:1055800000F0E7FDC046BD4602B080BD90B587B0D3
:1055900000AFF860B9607A6017243B1900221A70D6
:1055A000FB68002B3CD0FB68180000F03DF80300BE
:1055B00001339BB2DB189AB27B681A803B191B78C7
:1055C0003A19591C11701A00BB689B187A68127836
:1055D0001A703B191B783A19591C11701A00BB68D4
:1055E0009B1803221A7017E0FB685A1CFA601724F4
:1055F0003A1912783919501C08701100BA685218FB
:105600001B7813703B191B783A19591C11701A003A
:10561000BB689B1800221A70FB681B78002BE3D133
:10562000C046BD4607B090BD80B584B000AF78607D
:105630000F23FB1800221A7008E00F217B181A783C
:105640007B1801321A707B6801337B607B681B78A2
:10565000002BF2D10F23FB181B781800BD4604B0B5
:1056600080BD80B584B000AFF860B960BB1D1A8002
:10567000FA68A5239B000221D150BB1D1A88FB6844
:10568000DA61BB1D1A88FB681A62BB1D1B88BA68E9
:10569000F868002100F009FE00231800BD4604B0A0
:1056A00080BD80B584B000AFF860B960BB1D1A80C2
:1056B000BB1D1B88BA68F868002100F0F6FD0023C6
:1056C0001800BD4604B080BD80B584B000AFF8605E
:1056D000B960BB1D1A80FA68A5239B000321D15035
:1056E000BB1D1988FA68AE235B00D150BB1D198819
:1056F000FA68B0235B00D150BB1D1B88BA68F868FC
:10570000002100F009FE00231800BD4604B080BD52
:1057100080B584B000AFF860B960BB1D1A80BB1DB6
:105720001B88BA68F868002100F0F6FD0023180015
:10573000BD4604B080BD80B582B000AF78607A68A5
:10574000A5239B000421D15078680023002200216A
:1057500000F0ABFD00231800BD4602B080BD80B54F
:1057600082B000AF78607A68A5239B000521D150F4
:10577000786800230022002100F0CEFD00231800ED
:10578000BD4602B080BD000080B500AF074B1A686F
:10579000064B802149040A431A60054B1A68044BE2
:1057A00001210A431A60C046BD4680BDFCED00E001
:1057B000001000E080B584B000AF78600B4B1B6830
:1057C0000B491800FAF7A0FC03001A007B6853434A
:1057D000FB60084B00225A60C046064B5B68FA68C3
:1057E0009A42FAD8C046BD4604B080BD18010020D8
:1057F00040420F00001000E080B582B000AF020010
:10580000FB1D1A70FB1D1A789023DB051021180070
:10581000FAF7DAFF0520FFF7CDFFC046BD4602B01C
:1058200080BD0000B0B586B002AF0200FB1D1A704B
:10583000FB1D1B781F221340DAB20F257B191A704B
:105840000E243B1900221A700020FFF7D5FF3A19E9
:1058500079190C48FA239B0000930123FCF7D0FD33
:105860003A190848FA239B0000930123FF21FCF713
:10587000C7FD0120FFF7C0FF3B191B781800BD468C
:1058800004B0B0BDA001002090B583B000AFFC1DF6
:105890000320FFF7C7FF03002370FB1D1B78002BBD
:1058A00005D0FB1D1B78032B01D8012300E000234A
:1058B0001800BD4603B090BD80B582B000AFFAF7C6
:1058C000AFFC00F04BF800F0E7F800F0A7F800F0AC
:1058D000EFF9FFF759FFFFF7D7FF03001A00FB1D91
:1058E0001A70FB1D1B78002B2CD09023DB050121A7
:1058F0001800FAF786FF6420FAF7F6FC9023DB0520
:1059000001211800FAF77DFF6420FAF7EDFC9023DF
:10591000DB0501211800FAF774FF6420FAF7E4FCB4
:105920009023DB0501211800FAF76BFF6420FAF7DA
:10593000DBFC9023DB0501211800FAF762FF6420ED
:10594000FAF7D2FC9023DB0501211800FAF759FF82
:10595000FA239B001800FAF7C7FCF3E790B597B05D
:1059600000AF28243B19180030231A00002100F052
:1059700005FF1823FB18180010231A00002100F05F
:10598000FDFE3B1D180014231A00002100F0F6FE56
:1059900021007B1801221A607B1801225A607B18B3
:1059A00002221A627B18802252025A627B188022DD
:1059B00052039A627B180022DA627B181800FBF708
:1059C00055FF031E01D000F0AFF818217B18072205
:1059D0001A607B1802225A607B1800229A607B189A
:1059E0000022DA607B1801211800FCF75DFA031E23
:1059F00001D000F099F83B1D802292021A603B1DF5
:105A000080221A613B1D1800FCF782FB031E01D0A7
:105A100000F08AF8C046BD4617B090BD80B500AF13
:105A20001B4B1C4A1A601A4B822252005A60184BB8
:105A300000229A60164BE022D200DA60144B00225A
:105A40001A61134B00225A61114B802292009A6115
:105A50000F4B1022DA610E4B00221A620C4B00220F
:105A60005A620B4B00229A62094B0722DA62084BFA
:105A700000221A63064B08225A63054B1800FCF7F4
:105A800025FC031E01D000F04FF8C046BD4680BD86
:105A9000A00100200030014090B589B000AF0C2477
:105AA0003B19180014231A00002100F067FE1D4B5B
:105AB0005A691C4B8021C9030A435A61194B5A6920
:105AC0008023DB031340BB60BB68164B5A69154B40
:105AD000802189020A435A61124B5A6980239B0232
